{
  "contractName": "Voting",
  "abi": [
    {
      "anonymous": false,
      "inputs": [
        {
          "indexed": true,
          "internalType": "address",
          "name": "previousOwner",
          "type": "address"
        },
        {
          "indexed": true,
          "internalType": "address",
          "name": "newOwner",
          "type": "address"
        }
      ],
      "name": "OwnershipTransferred",
      "type": "event"
    },
    {
      "anonymous": false,
      "inputs": [
        {
          "indexed": false,
          "internalType": "uint256",
          "name": "proposalId",
          "type": "uint256"
        }
      ],
      "name": "ProposalRegistered",
      "type": "event"
    },
    {
      "anonymous": false,
      "inputs": [
        {
          "indexed": false,
          "internalType": "address",
          "name": "voter",
          "type": "address"
        },
        {
          "indexed": false,
          "internalType": "uint256",
          "name": "proposalId",
          "type": "uint256"
        }
      ],
      "name": "Voted",
      "type": "event"
    },
    {
      "anonymous": false,
      "inputs": [
        {
          "indexed": false,
          "internalType": "address",
          "name": "voterAddress",
          "type": "address"
        }
      ],
      "name": "VoterRegistered",
      "type": "event"
    },
    {
      "anonymous": false,
      "inputs": [
        {
          "indexed": false,
          "internalType": "enum Voting.WorkflowStatus",
          "name": "previousStatus",
          "type": "uint8"
        },
        {
          "indexed": false,
          "internalType": "enum Voting.WorkflowStatus",
          "name": "newStatus",
          "type": "uint8"
        }
      ],
      "name": "WorkflowStatusChange",
      "type": "event"
    },
    {
      "inputs": [],
      "name": "owner",
      "outputs": [
        {
          "internalType": "address",
          "name": "",
          "type": "address"
        }
      ],
      "stateMutability": "view",
      "type": "function",
      "constant": true
    },
    {
      "inputs": [],
      "name": "renounceOwnership",
      "outputs": [],
      "stateMutability": "nonpayable",
      "type": "function"
    },
    {
      "inputs": [
        {
          "internalType": "address",
          "name": "newOwner",
          "type": "address"
        }
      ],
      "name": "transferOwnership",
      "outputs": [],
      "stateMutability": "nonpayable",
      "type": "function"
    },
    {
      "inputs": [],
      "name": "winningProposalID",
      "outputs": [
        {
          "internalType": "uint256",
          "name": "",
          "type": "uint256"
        }
      ],
      "stateMutability": "view",
      "type": "function",
      "constant": true
    },
    {
      "inputs": [],
      "name": "workflowStatus",
      "outputs": [
        {
          "internalType": "enum Voting.WorkflowStatus",
          "name": "",
          "type": "uint8"
        }
      ],
      "stateMutability": "view",
      "type": "function",
      "constant": true
    },
    {
      "inputs": [
        {
          "internalType": "address",
          "name": "_addr",
          "type": "address"
        }
      ],
      "name": "getVoter",
      "outputs": [
        {
          "components": [
            {
              "internalType": "bool",
              "name": "isRegistered",
              "type": "bool"
            },
            {
              "internalType": "bool",
              "name": "hasVoted",
              "type": "bool"
            },
            {
              "internalType": "uint256",
              "name": "votedProposalId",
              "type": "uint256"
            }
          ],
          "internalType": "struct Voting.Voter",
          "name": "",
          "type": "tuple"
        }
      ],
      "stateMutability": "view",
      "type": "function",
      "constant": true
    },
    {
      "inputs": [
        {
          "internalType": "address",
          "name": "_addr",
          "type": "address"
        }
      ],
      "name": "getVoterBool",
      "outputs": [
        {
          "internalType": "bool",
          "name": "",
          "type": "bool"
        }
      ],
      "stateMutability": "view",
      "type": "function",
      "constant": true
    },
    {
      "inputs": [],
      "name": "getOwner",
      "outputs": [
        {
          "internalType": "address",
          "name": "",
          "type": "address"
        }
      ],
      "stateMutability": "view",
      "type": "function",
      "constant": true
    },
    {
      "inputs": [
        {
          "internalType": "uint256",
          "name": "_id",
          "type": "uint256"
        }
      ],
      "name": "getOneProposal",
      "outputs": [
        {
          "components": [
            {
              "internalType": "string",
              "name": "description",
              "type": "string"
            },
            {
              "internalType": "uint256",
              "name": "voteCount",
              "type": "uint256"
            }
          ],
          "internalType": "struct Voting.Proposal",
          "name": "",
          "type": "tuple"
        }
      ],
      "stateMutability": "view",
      "type": "function",
      "constant": true
    },
    {
      "inputs": [],
      "name": "getProposalLength",
      "outputs": [
        {
          "internalType": "uint256",
          "name": "",
          "type": "uint256"
        }
      ],
      "stateMutability": "view",
      "type": "function",
      "constant": true
    },
    {
      "inputs": [
        {
          "internalType": "address",
          "name": "_addr",
          "type": "address"
        }
      ],
      "name": "addVoter",
      "outputs": [],
      "stateMutability": "nonpayable",
      "type": "function"
    },
    {
      "inputs": [
        {
          "internalType": "string",
          "name": "_desc",
          "type": "string"
        }
      ],
      "name": "addProposal",
      "outputs": [],
      "stateMutability": "nonpayable",
      "type": "function"
    },
    {
      "inputs": [
        {
          "internalType": "uint256",
          "name": "_id",
          "type": "uint256"
        }
      ],
      "name": "setVote",
      "outputs": [],
      "stateMutability": "nonpayable",
      "type": "function"
    },
    {
      "inputs": [],
      "name": "startProposalsRegistering",
      "outputs": [],
      "stateMutability": "nonpayable",
      "type": "function"
    },
    {
      "inputs": [],
      "name": "endProposalsRegistering",
      "outputs": [],
      "stateMutability": "nonpayable",
      "type": "function"
    },
    {
      "inputs": [],
      "name": "startVotingSession",
      "outputs": [],
      "stateMutability": "nonpayable",
      "type": "function"
    },
    {
      "inputs": [],
      "name": "endVotingSession",
      "outputs": [],
      "stateMutability": "nonpayable",
      "type": "function"
    },
    {
      "inputs": [],
      "name": "tallyVotes",
      "outputs": [],
      "stateMutability": "nonpayable",
      "type": "function"
    }
  ],
  "bytecode": "0x60806040523480156200001157600080fd5b5062000032620000266200003860201b60201c565b6200004060201b60201c565b62000104565b600033905090565b60008060009054906101000a900473ffffffffffffffffffffffffffffffffffffffff169050816000806101000a81548173ffffffffffffffffffffffffffffffffffffffff021916908373ffffffffffffffffffffffffffffffffffffffff1602179055508173ffffffffffffffffffffffffffffffffffffffff168173ffffffffffffffffffffffffffffffffffffffff167f8be0079c531659141344cd1fd0a4f28419497f9722a3daafe3b4186f6b6457e060405160405180910390a35050565b61267780620001146000396000f3fe608060405234801561001057600080fd5b50600436106101165760003560e01c8063a2788cce116100a2578063c88af42f11610071578063c88af42f14610271578063d4f50f981461027b578063ee74c678146102ab578063f2fde38b146102b5578063f4ab9adf146102d157610116565b8063a2788cce1461020f578063a7bfab161461023f578063bdc0143114610249578063c7038a4e1461026757610116565b8063715018a6116100e9578063715018a61461018d5780638263a93814610197578063893d20e8146101b55780638da5cb5b146101d3578063a1edffa2146101f157610116565b8063230796ae1461011b5780632fdae3c514610137578063378a217814610153578063478258721461015d575b600080fd5b61013560048036038101906101309190611649565b6102ed565b005b610151600480360381019061014c91906116db565b6105e8565b005b61015b61087e565b005b61017760048036038101906101729190611786565b610ace565b60405161018491906117ce565b60405180910390f35b610195610b27565b005b61019f610b3b565b6040516101ac91906117f8565b60405180910390f35b6101bd610b48565b6040516101ca9190611822565b60405180910390f35b6101db610b57565b6040516101e89190611822565b60405180910390f35b6101f9610b80565b60405161020691906118b4565b60405180910390f35b61022960048036038101906102249190611649565b610b93565b60405161023691906119ab565b60405180910390f35b610247610cfa565b005b610251610de0565b60405161025e91906117f8565b60405180910390f35b61026f610de6565b005b610279610f61565b005b61029560048036038101906102909190611786565b611046565b6040516102a29190611a1e565b60405180910390f35b6102b361116e565b005b6102cf60048036038101906102ca9190611786565b611254565b005b6102eb60048036038101906102e69190611786565b6112d7565b005b600460003373ffffffffffffffffffffffffffffffffffffffff1673ffffffffffffffffffffffffffffffffffffffff16815260200190815260200160002060000160009054906101000a900460ff1661037c576040517f08c379a000000000000000000000000000000000000000000000000000000000815260040161037390611a96565b60405180910390fd5b600360058111156103905761038f61183d565b5b600260009054906101000a900460ff1660058111156103b2576103b161183d565b5b146103f2576040517f08c379a00000000000000000000000000000000000000000000000000000000081526004016103e990611b28565b60405180910390fd5b60011515600460003373ffffffffffffffffffffffffffffffffffffffff1673ffffffffffffffffffffffffffffffffffffffff16815260200190815260200160002060000160019054906101000a900460ff16151503610488576040517f08c379a000000000000000000000000000000000000000000000000000000000815260040161047f90611b94565b60405180910390fd5b60038054905081106104cf576040517f08c379a00000000000000000000000000000000000000000000000000000000081526004016104c690611c00565b60405180910390fd5b80600460003373ffffffffffffffffffffffffffffffffffffffff1673ffffffffffffffffffffffffffffffffffffffff168152602001908152602001600020600101819055506001600460003373ffffffffffffffffffffffffffffffffffffffff1673ffffffffffffffffffffffffffffffffffffffff16815260200190815260200160002060000160016101000a81548160ff0219169083151502179055506003818154811061058557610584611c20565b5b906000526020600020906002020160010160008154809291906105a790611c7e565b91905055507f4d99b957a2bc29a30ebd96a7be8e68fe50a3c701db28a91436490b7d53870ca433826040516105dd929190611cc6565b60405180910390a150565b600460003373ffffffffffffffffffffffffffffffffffffffff1673ffffffffffffffffffffffffffffffffffffffff16815260200190815260200160002060000160009054906101000a900460ff16610677576040517f08c379a000000000000000000000000000000000000000000000000000000000815260040161066e90611a96565b60405180910390fd5b6001600581111561068b5761068a61183d565b5b600260009054906101000a900460ff1660058111156106ad576106ac61183d565b5b146106ed576040517f08c379a00000000000000000000000000000000000000000000000000000000081526004016106e490611d3b565b60405180910390fd5b6040516020016106fc90611d81565b604051602081830303815290604052805190602001208282604051602001610725929190611ddd565b604051602081830303815290604052805190602001200361077b576040517f08c379a000000000000000000000000000000000000000000000000000000000815260040161077290611e73565b60405180910390fd5b6103e86003805490501061078e57600080fd5b6107966115ca565b82828080601f016020809104026020016040519081016040528093929190818152602001838380828437600081840152601f19601f8201169050808301925050505050505081600001819052506003819080600181540180825580915050600190039060005260206000209060020201600090919091909150600082015181600001908161082491906120ce565b506020820151816001015550507f92e393e9b54e2f801d3ea4beb0c5e71a21cc34a5d34b77d0fb8a3aa1650dc18f600160038054905061086491906121a0565b60405161087191906117f8565b60405180910390a1505050565b610886611480565b6004600581111561089a5761089961183d565b5b600260009054906101000a900460ff1660058111156108bc576108bb61183d565b5b146108fc576040517f08c379a00000000000000000000000000000000000000000000000000000000081526004016108f390612246565b60405180910390fd5b6000806003805480602002602001604051908101604052809291908181526020016000905b828210156109ef578382906000526020600020906002020160405180604001604052908160008201805461095490611ef1565b80601f016020809104026020016040519081016040528092919081815260200182805461098090611ef1565b80156109cd5780601f106109a2576101008083540402835291602001916109cd565b820191906000526020600020905b8154815290600101906020018083116109b057829003601f168201915b5050505050815260200160018201548152505081526020019060010190610921565b50505050905060005b8151811015610a5c57818381518110610a1457610a13611c20565b5b602002602001015160200151828281518110610a3357610a32611c20565b5b6020026020010151602001511115610a49578092505b8080610a5490611c7e565b9150506109f8565b50816001819055506005600260006101000a81548160ff02191690836005811115610a8a57610a8961183d565b5b02179055507f0a97a4ee45751e2abf3e4fc8946939630b11b371ea8ae39ccdc3056e98f5cc3f60046005604051610ac2929190612266565b60405180910390a15050565b6000600460008373ffffffffffffffffffffffffffffffffffffffff1673ffffffffffffffffffffffffffffffffffffffff16815260200190815260200160002060000160009054906101000a900460ff169050919050565b610b2f611480565b610b3960006114fe565b565b6000600380549050905090565b6000610b52610b57565b905090565b60008060009054906101000a900473ffffffffffffffffffffffffffffffffffffffff16905090565b600260009054906101000a900460ff1681565b610b9b6115ca565b600460003373ffffffffffffffffffffffffffffffffffffffff1673ffffffffffffffffffffffffffffffffffffffff16815260200190815260200160002060000160009054906101000a900460ff16610c2a576040517f08c379a0000000000000000000000000000000000000000000000000000000008152600401610c2190611a96565b60405180910390fd5b60038281548110610c3e57610c3d611c20565b5b9060005260206000209060020201604051806040016040529081600082018054610c6790611ef1565b80601f0160208091040260200160405190810160405280929190818152602001828054610c9390611ef1565b8015610ce05780601f10610cb557610100808354040283529160200191610ce0565b820191906000526020600020905b815481529060010190602001808311610cc357829003601f168201915b505050505081526020016001820154815250509050919050565b610d02611480565b60036005811115610d1657610d1561183d565b5b600260009054906101000a900460ff166005811115610d3857610d3761183d565b5b14610d78576040517f08c379a0000000000000000000000000000000000000000000000000000000008152600401610d6f90611b28565b60405180910390fd5b6004600260006101000a81548160ff02191690836005811115610d9e57610d9d61183d565b5b02179055507f0a97a4ee45751e2abf3e4fc8946939630b11b371ea8ae39ccdc3056e98f5cc3f60036004604051610dd6929190612266565b60405180910390a1565b60015481565b610dee611480565b60006005811115610e0257610e0161183d565b5b600260009054906101000a900460ff166005811115610e2457610e2361183d565b5b14610e64576040517f08c379a0000000000000000000000000000000000000000000000000000000008152600401610e5b90612301565b60405180910390fd5b6001600260006101000a81548160ff02191690836005811115610e8a57610e8961183d565b5b0217905550610e976115ca565b6040518060400160405280600781526020017f47454e4553495300000000000000000000000000000000000000000000000000815250816000018190525060038190806001815401808255809150506001900390600052602060002090600202016000909190919091506000820151816000019081610f1691906120ce565b506020820151816001015550507f0a97a4ee45751e2abf3e4fc8946939630b11b371ea8ae39ccdc3056e98f5cc3f60006001604051610f56929190612266565b60405180910390a150565b610f69611480565b60016005811115610f7d57610f7c61183d565b5b600260009054906101000a900460ff166005811115610f9f57610f9e61183d565b5b14610fdf576040517f08c379a0000000000000000000000000000000000000000000000000000000008152600401610fd690612393565b60405180910390fd5b60028060006101000a81548160ff021916908360058111156110045761100361183d565b5b02179055507f0a97a4ee45751e2abf3e4fc8946939630b11b371ea8ae39ccdc3056e98f5cc3f6001600260405161103c929190612266565b60405180910390a1565b61104e6115e4565b600460003373ffffffffffffffffffffffffffffffffffffffff1673ffffffffffffffffffffffffffffffffffffffff16815260200190815260200160002060000160009054906101000a900460ff166110dd576040517f08c379a00000000000000000000000000000000000000000000000000000000081526004016110d490611a96565b60405180910390fd5b600460008373ffffffffffffffffffffffffffffffffffffffff1673ffffffffffffffffffffffffffffffffffffffff1681526020019081526020016000206040518060600160405290816000820160009054906101000a900460ff161515151581526020016000820160019054906101000a900460ff161515151581526020016001820154815250509050919050565b611176611480565b6002600581111561118a5761118961183d565b5b600260009054906101000a900460ff1660058111156111ac576111ab61183d565b5b146111ec576040517f08c379a00000000000000000000000000000000000000000000000000000000081526004016111e390612425565b60405180910390fd5b6003600260006101000a81548160ff021916908360058111156112125761121161183d565b5b02179055507f0a97a4ee45751e2abf3e4fc8946939630b11b371ea8ae39ccdc3056e98f5cc3f6002600360405161124a929190612266565b60405180910390a1565b61125c611480565b600073ffffffffffffffffffffffffffffffffffffffff168173ffffffffffffffffffffffffffffffffffffffff16036112cb576040517f08c379a00000000000000000000000000000000000000000000000000000000081526004016112c2906124b7565b60405180910390fd5b6112d4816114fe565b50565b6112df611480565b600060058111156112f3576112f261183d565b5b600260009054906101000a900460ff1660058111156113155761131461183d565b5b14611355576040517f08c379a000000000000000000000000000000000000000000000000000000000815260040161134c90612549565b60405180910390fd5b60011515600460008373ffffffffffffffffffffffffffffffffffffffff1673ffffffffffffffffffffffffffffffffffffffff16815260200190815260200160002060000160009054906101000a900460ff161515036113eb576040517f08c379a00000000000000000000000000000000000000000000000000000000081526004016113e2906125b5565b60405180910390fd5b6001600460008373ffffffffffffffffffffffffffffffffffffffff1673ffffffffffffffffffffffffffffffffffffffff16815260200190815260200160002060000160006101000a81548160ff0219169083151502179055507fb6be2187d059cc2a55fe29e0e503b566e1e0f8c8780096e185429350acffd3dd816040516114759190611822565b60405180910390a150565b6114886115c2565b73ffffffffffffffffffffffffffffffffffffffff166114a6610b57565b73ffffffffffffffffffffffffffffffffffffffff16146114fc576040517f08c379a00000000000000000000000000000000000000000000000000000000081526004016114f390612621565b60405180910390fd5b565b60008060009054906101000a900473ffffffffffffffffffffffffffffffffffffffff169050816000806101000a81548173ffffffffffffffffffffffffffffffffffffffff021916908373ffffffffffffffffffffffffffffffffffffffff1602179055508173ffffffffffffffffffffffffffffffffffffffff168173ffffffffffffffffffffffffffffffffffffffff167f8be0079c531659141344cd1fd0a4f28419497f9722a3daafe3b4186f6b6457e060405160405180910390a35050565b600033905090565b604051806040016040528060608152602001600081525090565b6040518060600160405280600015158152602001600015158152602001600081525090565b600080fd5b600080fd5b6000819050919050565b61162681611613565b811461163157600080fd5b50565b6000813590506116438161161d565b92915050565b60006020828403121561165f5761165e611609565b5b600061166d84828501611634565b91505092915050565b600080fd5b600080fd5b600080fd5b60008083601f84011261169b5761169a611676565b5b8235905067ffffffffffffffff8111156116b8576116b761167b565b5b6020830191508360018202830111156116d4576116d3611680565b5b9250929050565b600080602083850312156116f2576116f1611609565b5b600083013567ffffffffffffffff8111156117105761170f61160e565b5b61171c85828601611685565b92509250509250929050565b600073ffffffffffffffffffffffffffffffffffffffff82169050919050565b600061175382611728565b9050919050565b61176381611748565b811461176e57600080fd5b50565b6000813590506117808161175a565b92915050565b60006020828403121561179c5761179b611609565b5b60006117aa84828501611771565b91505092915050565b60008115159050919050565b6117c8816117b3565b82525050565b60006020820190506117e360008301846117bf565b92915050565b6117f281611613565b82525050565b600060208201905061180d60008301846117e9565b92915050565b61181c81611748565b82525050565b60006020820190506118376000830184611813565b92915050565b7f4e487b7100000000000000000000000000000000000000000000000000000000600052602160045260246000fd5b6006811061187d5761187c61183d565b5b50565b600081905061188e8261186c565b919050565b600061189e82611880565b9050919050565b6118ae81611893565b82525050565b60006020820190506118c960008301846118a5565b92915050565b600081519050919050565b600082825260208201905092915050565b60005b838110156119095780820151818401526020810190506118ee565b60008484015250505050565b6000601f19601f8301169050919050565b6000611931826118cf565b61193b81856118da565b935061194b8185602086016118eb565b61195481611915565b840191505092915050565b61196881611613565b82525050565b6000604083016000830151848203600086015261198b8282611926565b91505060208301516119a0602086018261195f565b508091505092915050565b600060208201905081810360008301526119c5818461196e565b905092915050565b6119d6816117b3565b82525050565b6060820160008201516119f260008501826119cd565b506020820151611a0560208501826119cd565b506040820151611a18604085018261195f565b50505050565b6000606082019050611a3360008301846119dc565b92915050565b600082825260208201905092915050565b7f596f75277265206e6f74206120766f7465720000000000000000000000000000600082015250565b6000611a80601283611a39565b9150611a8b82611a4a565b602082019050919050565b60006020820190508181036000830152611aaf81611a73565b9050919050565b7f566f74696e672073657373696f6e20686176656e74207374617274656420796560008201527f7400000000000000000000000000000000000000000000000000000000000000602082015250565b6000611b12602183611a39565b9150611b1d82611ab6565b604082019050919050565b60006020820190508181036000830152611b4181611b05565b9050919050565b7f596f75206861766520616c726561647920766f74656400000000000000000000600082015250565b6000611b7e601683611a39565b9150611b8982611b48565b602082019050919050565b60006020820190508181036000830152611bad81611b71565b9050919050565b7f50726f706f73616c206e6f7420666f756e640000000000000000000000000000600082015250565b6000611bea601283611a39565b9150611bf582611bb4565b602082019050919050565b60006020820190508181036000830152611c1981611bdd565b9050919050565b7f4e487b7100000000000000000000000000000000000000000000000000000000600052603260045260246000fd5b7f4e487b7100000000000000000000000000000000000000000000000000000000600052601160045260246000fd5b6000611c8982611613565b91507fffffffffffffffffffffffffffffffffffffffffffffffffffffffffffffffff8203611cbb57611cba611c4f565b5b600182019050919050565b6000604082019050611cdb6000830185611813565b611ce860208301846117e9565b9392505050565b7f50726f706f73616c7320617265206e6f7420616c6c6f77656420796574000000600082015250565b6000611d25601d83611a39565b9150611d3082611cef565b602082019050919050565b60006020820190508181036000830152611d5481611d18565b9050919050565b50565b6000611d6b600083611a39565b9150611d7682611d5b565b600082019050919050565b60006020820190508181036000830152611d9a81611d5e565b9050919050565b82818337600083830152505050565b6000611dbc8385611a39565b9350611dc9838584611da1565b611dd283611915565b840190509392505050565b60006020820190508181036000830152611df8818486611db0565b90509392505050565b7f566f7573206e6520706f7576657a20706173206e65207269656e2070726f706f60008201527f7365720000000000000000000000000000000000000000000000000000000000602082015250565b6000611e5d602383611a39565b9150611e6882611e01565b604082019050919050565b60006020820190508181036000830152611e8c81611e50565b9050919050565b7f4e487b7100000000000000000000000000000000000000000000000000000000600052604160045260246000fd5b7f4e487b7100000000000000000000000000000000000000000000000000000000600052602260045260246000fd5b60006002820490506001821680611f0957607f821691505b602082108103611f1c57611f1b611ec2565b5b50919050565b60008190508160005260206000209050919050565b60006020601f8301049050919050565b600082821b905092915050565b600060088302611f847fffffffffffffffffffffffffffffffffffffffffffffffffffffffffffffffff82611f47565b611f8e8683611f47565b95508019841693508086168417925050509392505050565b6000819050919050565b6000611fcb611fc6611fc184611613565b611fa6565b611613565b9050919050565b6000819050919050565b611fe583611fb0565b611ff9611ff182611fd2565b848454611f54565b825550505050565b600090565b61200e612001565b612019818484611fdc565b505050565b5b8181101561203d57612032600082612006565b60018101905061201f565b5050565b601f8211156120825761205381611f22565b61205c84611f37565b8101602085101561206b578190505b61207f61207785611f37565b83018261201e565b50505b505050565b600082821c905092915050565b60006120a560001984600802612087565b1980831691505092915050565b60006120be8383612094565b9150826002028217905092915050565b6120d7826118cf565b67ffffffffffffffff8111156120f0576120ef611e93565b5b6120fa8254611ef1565b612105828285612041565b600060209050601f8311600181146121385760008415612126578287015190505b61213085826120b2565b865550612198565b601f19841661214686611f22565b60005b8281101561216e57848901518255600182019150602085019450602081019050612149565b8683101561218b5784890151612187601f891682612094565b8355505b6001600288020188555050505b505050505050565b60006121ab82611613565b91506121b683611613565b92508282039050818111156121ce576121cd611c4f565b5b92915050565b7f43757272656e7420737461747573206973206e6f7420766f74696e672073657360008201527f73696f6e20656e64656400000000000000000000000000000000000000000000602082015250565b6000612230602a83611a39565b915061223b826121d4565b604082019050919050565b6000602082019050818103600083015261225f81612223565b9050919050565b600060408201905061227b60008301856118a5565b61228860208301846118a5565b9392505050565b7f5265676973746572696e672070726f706f73616c732063616e7420626520737460008201527f6172746564206e6f770000000000000000000000000000000000000000000000602082015250565b60006122eb602983611a39565b91506122f68261228f565b604082019050919050565b6000602082019050818103600083015261231a816122de565b9050919050565b7f5265676973746572696e672070726f706f73616c7320686176656e742073746160008201527f7274656420796574000000000000000000000000000000000000000000000000602082015250565b600061237d602883611a39565b915061238882612321565b604082019050919050565b600060208201905081810360008301526123ac81612370565b9050919050565b7f5265676973746572696e672070726f706f73616c73207068617365206973206e60008201527f6f742066696e6973686564000000000000000000000000000000000000000000602082015250565b600061240f602b83611a39565b915061241a826123b3565b604082019050919050565b6000602082019050818103600083015261243e81612402565b9050919050565b7f4f776e61626c653a206e6577206f776e657220697320746865207a65726f206160008201527f6464726573730000000000000000000000000000000000000000000000000000602082015250565b60006124a1602683611a39565b91506124ac82612445565b604082019050919050565b600060208201905081810360008301526124d081612494565b9050919050565b7f566f7465727320726567697374726174696f6e206973206e6f74206f70656e2060008201527f7965740000000000000000000000000000000000000000000000000000000000602082015250565b6000612533602383611a39565b915061253e826124d7565b604082019050919050565b6000602082019050818103600083015261256281612526565b9050919050565b7f416c726561647920726567697374657265640000000000000000000000000000600082015250565b600061259f601283611a39565b91506125aa82612569565b602082019050919050565b600060208201905081810360008301526125ce81612592565b9050919050565b7f4f776e61626c653a2063616c6c6572206973206e6f7420746865206f776e6572600082015250565b600061260b602083611a39565b9150612616826125d5565b602082019050919050565b6000602082019050818103600083015261263a816125fe565b905091905056fea2646970667358221220722c1581fa583d287983a4f4c27be83948e8d83d2c0f484d1825c998cffb12db64736f6c63430008120033",
  "immutableReferences": {},
  "source": "// SPDX-License-Identifier: MIT\n\npragma solidity 0.8.18;\nimport \"../node_modules/@openzeppelin/contracts/access/Ownable.sol\";\n\n/// @author Lo MARQUAND and Wassim MANSOURI\n/// @title The Alyra projet 3 which is a Voting smart contract (front and back-end)\n\ncontract Voting is Ownable {\n    uint public winningProposalID;\n\n    struct Voter {\n        bool isRegistered;\n        bool hasVoted;\n        uint votedProposalId;\n    }\n\n    struct Proposal {\n        string description;\n        uint voteCount;\n    }\n\n    enum WorkflowStatus {\n        RegisteringVoters,\n        ProposalsRegistrationStarted,\n        ProposalsRegistrationEnded,\n        VotingSessionStarted,\n        VotingSessionEnded,\n        VotesTallied\n    }\n\n    WorkflowStatus public workflowStatus;\n    Proposal[] proposalsArray;\n    mapping(address => Voter) voters;\n\n    event VoterRegistered(address voterAddress);\n    event WorkflowStatusChange(\n        WorkflowStatus previousStatus,\n        WorkflowStatus newStatus\n    );\n    event ProposalRegistered(uint proposalId);\n    event Voted(address voter, uint proposalId);\n\n    modifier onlyVoters() {\n        require(voters[msg.sender].isRegistered, \"You're not a voter\");\n        _;\n    }\n\n    // ::::::::::::: GETTERS ::::::::::::: //\n\n    /// Return info about a Voter\n    /// @param _addr the eth address\n    /// @dev return the Voter struct information\n    function getVoter(\n        address _addr\n    ) external view onlyVoters returns (Voter memory) {\n        return voters[_addr];\n    }\n\n    /// Return true if the address is registered as a Voter\n    /// @param _addr the eth address\n    /// @dev return a boolean, true if _addr is a Voter\n    function getVoterBool(address _addr) external view returns (bool) {\n        return (voters[_addr].isRegistered);\n    }\n\n    /// Return the address of the Owner\n    /// @dev use the owner function of the Ownable contract to return the eth address of the Owner\n    function getOwner() external view returns (address) {\n        return owner();\n    }\n\n    /// Return info about a Proposal\n    /// @param _id the id of a Proposal\n    /// @dev return the Proposal struct of a Proposal id\n    function getOneProposal(\n        uint _id\n    ) external view onlyVoters returns (Proposal memory) {\n        return proposalsArray[_id];\n    }\n\n    /// Return the numbers of Proposals Registered\n    /// @dev return the length of the proposalsArray\n       function getProposalLength() external view returns(uint) {\n        return proposalsArray.length;\n    }\n\n    // ::::::::::::: REGISTRATION ::::::::::::: //\n\n    // Add a Voter to the Voting process\n    // @param _addr the eth address of a Voter\n    // @dev change the value of the isRegistered parameter to true for this voter\n    function addVoter(address _addr) external onlyOwner {\n        require(\n            workflowStatus == WorkflowStatus.RegisteringVoters,\n            \"Voters registration is not open yet\"\n        );\n        require(voters[_addr].isRegistered != true, \"Already registered\");\n\n        voters[_addr].isRegistered = true;\n        emit VoterRegistered(_addr);\n    }\n\n    // ::::::::::::: PROPOSAL ::::::::::::: //\n\n    /// Add a Proposal that Voters will be able to Vote for\n    /// @param _desc the description of the proposal\n    /// @dev add the string _desc to the description of the Proposal and to the array of Proposals\n    function addProposal(string calldata _desc) external onlyVoters {\n        require(\n            workflowStatus == WorkflowStatus.ProposalsRegistrationStarted,\n            \"Proposals are not allowed yet\"\n        );\n        require(\n            keccak256(abi.encode(_desc)) != keccak256(abi.encode(\"\")),\n            \"Vous ne pouvez pas ne rien proposer\"\n        ); // facultatif\n        require(proposalsArray.length < 1000); // nous limitons le nombre max de proposals pour viter un DOS Gas Limit dans la boucle for de tallyVotes;\n\n        // voir que desc est different des autres\n\n        Proposal memory proposal;\n        proposal.description = _desc;\n        proposalsArray.push(proposal);\n        emit ProposalRegistered(proposalsArray.length - 1);\n    }\n\n    // ::::::::::::: VOTE ::::::::::::: //\n\n    /// Allow a Voter to vote for a Proposal\n    /// @param _id the id of a Proposal\n    /// @dev change the information about the voter in the struct and count the vote\n    function setVote(uint _id) external onlyVoters {\n        require(\n            workflowStatus == WorkflowStatus.VotingSessionStarted,\n            \"Voting session havent started yet\"\n        );\n        require(voters[msg.sender].hasVoted != true, \"You have already voted\");\n        require(_id < proposalsArray.length, \"Proposal not found\"); // pas oblig, et pas besoin du >0 car uint\n\n        voters[msg.sender].votedProposalId = _id;\n        voters[msg.sender].hasVoted = true;\n        proposalsArray[_id].voteCount++;\n\n        emit Voted(msg.sender, _id);\n    }\n\n    // ::::::::::::: STATE ::::::::::::: //\n\n    /// Start the Registration of Proposals\n    /// @dev change the value of the Workflow Status and add the GENESIS Proposal\n    function startProposalsRegistering() external onlyOwner {\n        require(\n            workflowStatus == WorkflowStatus.RegisteringVoters,\n            \"Registering proposals cant be started now\"\n        );\n        workflowStatus = WorkflowStatus.ProposalsRegistrationStarted;\n\n        Proposal memory proposal;\n        proposal.description = \"GENESIS\";\n        proposalsArray.push(proposal);\n\n        emit WorkflowStatusChange(\n            WorkflowStatus.RegisteringVoters,\n            WorkflowStatus.ProposalsRegistrationStarted\n        );\n    }\n\n    /// End the Registration of Proposals\n    /// @dev change the value of the Workflow Status\n    function endProposalsRegistering() external onlyOwner {\n        require(\n            workflowStatus == WorkflowStatus.ProposalsRegistrationStarted,\n            \"Registering proposals havent started yet\"\n        );\n        workflowStatus = WorkflowStatus.ProposalsRegistrationEnded;\n        emit WorkflowStatusChange(\n            WorkflowStatus.ProposalsRegistrationStarted,\n            WorkflowStatus.ProposalsRegistrationEnded\n        );\n    }\n\n    /// Start the Voting Session\n    /// @dev change the value of the Workflow Status\n    function startVotingSession() external onlyOwner {\n        require(\n            workflowStatus == WorkflowStatus.ProposalsRegistrationEnded,\n            \"Registering proposals phase is not finished\"\n        );\n        workflowStatus = WorkflowStatus.VotingSessionStarted;\n        emit WorkflowStatusChange(\n            WorkflowStatus.ProposalsRegistrationEnded,\n            WorkflowStatus.VotingSessionStarted\n        );\n    }\n\n    /// End the Voting Session\n    /// @dev change the value of the Workflow Status\n    function endVotingSession() external onlyOwner {\n        require(\n            workflowStatus == WorkflowStatus.VotingSessionStarted,\n            \"Voting session havent started yet\"\n        );\n        workflowStatus = WorkflowStatus.VotingSessionEnded;\n        emit WorkflowStatusChange(\n            WorkflowStatus.VotingSessionStarted,\n            WorkflowStatus.VotingSessionEnded\n        );\n    }\n\n    /// Count the Votes at the end of the Voting Session\n    /// @dev compare the numbers of votes of each Proposal and calculate the Id of the Winning Proposal\n    function tallyVotes() external onlyOwner {\n        require(\n            workflowStatus == WorkflowStatus.VotingSessionEnded,\n            \"Current status is not voting session ended\"\n        );\n\n        uint _winningProposalId;\n        Proposal[] memory proposalsArray2 = proposalsArray; //reduce gas cost\n\n        for (uint256 p = 0; p < proposalsArray2.length; p++) {\n            if (\n                proposalsArray2[p].voteCount >\n                proposalsArray2[_winningProposalId].voteCount\n            ) {\n                _winningProposalId = p;\n            }\n        }\n        winningProposalID = _winningProposalId;\n\n        workflowStatus = WorkflowStatus.VotesTallied;\n        emit WorkflowStatusChange(\n            WorkflowStatus.VotingSessionEnded,\n            WorkflowStatus.VotesTallied\n        );\n    }\n}\n",
  "sourcePath": "/home/leomrqd/Satoshi/Projet3-Voting-Leo-Wassim/truffle/contracts/Voting.sol",
  "compiler": {
    "name": "solc",
    "version": "0.8.18+commit.87f61d96.Emscripten.clang"
  },
  "schemaVersion": "3.4.11",
  "updatedAt": "2023-03-17T14:19:40.812Z",
  "networkType": "ethereum",
  "devdoc": {
    "author": "Lo MARQUAND and Wassim MANSOURI",
    "kind": "dev",
    "methods": {
      "addProposal(string)": {
        "details": "add the string _desc to the description of the Proposal and to the array of Proposals",
        "params": {
          "_desc": "the description of the proposal"
        }
      },
      "endProposalsRegistering()": {
        "details": "change the value of the Workflow Status"
      },
      "endVotingSession()": {
        "details": "change the value of the Workflow Status"
      },
      "getOneProposal(uint256)": {
        "details": "return the Proposal struct of a Proposal id",
        "params": {
          "_id": "the id of a Proposal"
        }
      },
      "getOwner()": {
        "details": "use the owner function of the Ownable contract to return the eth address of the Owner"
      },
      "getProposalLength()": {
        "details": "return the length of the proposalsArray"
      },
      "getVoter(address)": {
        "details": "return the Voter struct information",
        "params": {
          "_addr": "the eth address"
        }
      },
      "getVoterBool(address)": {
        "details": "return a boolean, true if _addr is a Voter",
        "params": {
          "_addr": "the eth address"
        }
      },
      "owner()": {
        "details": "Returns the address of the current owner."
      },
      "renounceOwnership()": {
        "details": "Leaves the contract without owner. It will not be possible to call `onlyOwner` functions anymore. Can only be called by the current owner. NOTE: Renouncing ownership will leave the contract without an owner, thereby removing any functionality that is only available to the owner."
      },
      "setVote(uint256)": {
        "details": "change the information about the voter in the struct and count the vote",
        "params": {
          "_id": "the id of a Proposal"
        }
      },
      "startProposalsRegistering()": {
        "details": "change the value of the Workflow Status and add the GENESIS Proposal"
      },
      "startVotingSession()": {
        "details": "change the value of the Workflow Status"
      },
      "tallyVotes()": {
        "details": "compare the numbers of votes of each Proposal and calculate the Id of the Winning Proposal"
      },
      "transferOwnership(address)": {
        "details": "Transfers ownership of the contract to a new account (`newOwner`). Can only be called by the current owner."
      }
    },
    "title": "The Alyra projet 3 which is a Voting smart contract (front and back-end)",
    "version": 1
  },
  "userdoc": {
    "kind": "user",
    "methods": {
      "addProposal(string)": {
        "notice": "Add a Proposal that Voters will be able to Vote for"
      },
      "endProposalsRegistering()": {
        "notice": "End the Registration of Proposals"
      },
      "endVotingSession()": {
        "notice": "End the Voting Session"
      },
      "getOneProposal(uint256)": {
        "notice": "Return info about a Proposal"
      },
      "getOwner()": {
        "notice": "Return the address of the Owner"
      },
      "getProposalLength()": {
        "notice": "Return the numbers of Proposals Registered"
      },
      "getVoter(address)": {
        "notice": "Return info about a Voter"
      },
      "getVoterBool(address)": {
        "notice": "Return true if the address is registered as a Voter"
      },
      "setVote(uint256)": {
        "notice": "Allow a Voter to vote for a Proposal"
      },
      "startProposalsRegistering()": {
        "notice": "Start the Registration of Proposals"
      },
      "startVotingSession()": {
        "notice": "Start the Voting Session"
      },
      "tallyVotes()": {
        "notice": "Count the Votes at the end of the Voting Session"
      }
    },
    "version": 1
  }
}