{
  "contractName": "Voting",
  "abi": [
    {
      "anonymous": false,
      "inputs": [
        {
          "indexed": true,
          "internalType": "address",
          "name": "previousOwner",
          "type": "address"
        },
        {
          "indexed": true,
          "internalType": "address",
          "name": "newOwner",
          "type": "address"
        }
      ],
      "name": "OwnershipTransferred",
      "type": "event"
    },
    {
      "anonymous": false,
      "inputs": [
        {
          "indexed": false,
          "internalType": "uint256",
          "name": "proposalId",
          "type": "uint256"
        }
      ],
      "name": "ProposalRegistered",
      "type": "event"
    },
    {
      "anonymous": false,
      "inputs": [
        {
          "indexed": false,
          "internalType": "address",
          "name": "voter",
          "type": "address"
        },
        {
          "indexed": false,
          "internalType": "uint256",
          "name": "proposalId",
          "type": "uint256"
        }
      ],
      "name": "Voted",
      "type": "event"
    },
    {
      "anonymous": false,
      "inputs": [
        {
          "indexed": false,
          "internalType": "address",
          "name": "voterAddress",
          "type": "address"
        }
      ],
      "name": "VoterRegistered",
      "type": "event"
    },
    {
      "anonymous": false,
      "inputs": [
        {
          "indexed": false,
          "internalType": "enum Voting.WorkflowStatus",
          "name": "previousStatus",
          "type": "uint8"
        },
        {
          "indexed": false,
          "internalType": "enum Voting.WorkflowStatus",
          "name": "newStatus",
          "type": "uint8"
        }
      ],
      "name": "WorkflowStatusChange",
      "type": "event"
    },
    {
      "inputs": [],
      "name": "owner",
      "outputs": [
        {
          "internalType": "address",
          "name": "",
          "type": "address"
        }
      ],
      "stateMutability": "view",
      "type": "function",
      "constant": true
    },
    {
      "inputs": [],
      "name": "renounceOwnership",
      "outputs": [],
      "stateMutability": "nonpayable",
      "type": "function"
    },
    {
      "inputs": [
        {
          "internalType": "address",
          "name": "newOwner",
          "type": "address"
        }
      ],
      "name": "transferOwnership",
      "outputs": [],
      "stateMutability": "nonpayable",
      "type": "function"
    },
    {
      "inputs": [],
      "name": "winningProposalID",
      "outputs": [
        {
          "internalType": "uint256",
          "name": "",
          "type": "uint256"
        }
      ],
      "stateMutability": "view",
      "type": "function",
      "constant": true
    },
    {
      "inputs": [],
      "name": "workflowStatus",
      "outputs": [
        {
          "internalType": "enum Voting.WorkflowStatus",
          "name": "",
          "type": "uint8"
        }
      ],
      "stateMutability": "view",
      "type": "function",
      "constant": true
    },
    {
      "inputs": [
        {
          "internalType": "address",
          "name": "_addr",
          "type": "address"
        }
      ],
      "name": "getVoter",
      "outputs": [
        {
          "components": [
            {
              "internalType": "bool",
              "name": "isRegistered",
              "type": "bool"
            },
            {
              "internalType": "bool",
              "name": "hasVoted",
              "type": "bool"
            },
            {
              "internalType": "uint256",
              "name": "votedProposalId",
              "type": "uint256"
            }
          ],
          "internalType": "struct Voting.Voter",
          "name": "",
          "type": "tuple"
        }
      ],
      "stateMutability": "view",
      "type": "function",
      "constant": true
    },
    {
      "inputs": [
        {
          "internalType": "address",
          "name": "_addr",
          "type": "address"
        }
      ],
      "name": "getVoterBool",
      "outputs": [
        {
          "internalType": "bool",
          "name": "",
          "type": "bool"
        }
      ],
      "stateMutability": "view",
      "type": "function",
      "constant": true
    },
    {
      "inputs": [],
      "name": "getOwner",
      "outputs": [
        {
          "internalType": "address",
          "name": "",
          "type": "address"
        }
      ],
      "stateMutability": "view",
      "type": "function",
      "constant": true
    },
    {
      "inputs": [
        {
          "internalType": "uint256",
          "name": "_id",
          "type": "uint256"
        }
      ],
      "name": "getOneProposal",
      "outputs": [
        {
          "components": [
            {
              "internalType": "string",
              "name": "description",
              "type": "string"
            },
            {
              "internalType": "uint256",
              "name": "voteCount",
              "type": "uint256"
            }
          ],
          "internalType": "struct Voting.Proposal",
          "name": "",
          "type": "tuple"
        }
      ],
      "stateMutability": "view",
      "type": "function",
      "constant": true
    },
    {
      "inputs": [
        {
          "internalType": "address",
          "name": "_addr",
          "type": "address"
        }
      ],
      "name": "addVoter",
      "outputs": [],
      "stateMutability": "nonpayable",
      "type": "function"
    },
    {
      "inputs": [
        {
          "internalType": "string",
          "name": "_desc",
          "type": "string"
        }
      ],
      "name": "addProposal",
      "outputs": [],
      "stateMutability": "nonpayable",
      "type": "function"
    },
    {
      "inputs": [
        {
          "internalType": "uint256",
          "name": "_id",
          "type": "uint256"
        }
      ],
      "name": "setVote",
      "outputs": [],
      "stateMutability": "nonpayable",
      "type": "function"
    },
    {
      "inputs": [],
      "name": "startProposalsRegistering",
      "outputs": [],
      "stateMutability": "nonpayable",
      "type": "function"
    },
    {
      "inputs": [],
      "name": "endProposalsRegistering",
      "outputs": [],
      "stateMutability": "nonpayable",
      "type": "function"
    },
    {
      "inputs": [],
      "name": "startVotingSession",
      "outputs": [],
      "stateMutability": "nonpayable",
      "type": "function"
    },
    {
      "inputs": [],
      "name": "endVotingSession",
      "outputs": [],
      "stateMutability": "nonpayable",
      "type": "function"
    },
    {
      "inputs": [],
      "name": "tallyVotes",
      "outputs": [],
      "stateMutability": "nonpayable",
      "type": "function"
    }
  ],
  "bytecode": "0x60806040523480156200001157600080fd5b5062000032620000266200003860201b60201c565b6200004060201b60201c565b62000104565b600033905090565b60008060009054906101000a900473ffffffffffffffffffffffffffffffffffffffff169050816000806101000a81548173ffffffffffffffffffffffffffffffffffffffff021916908373ffffffffffffffffffffffffffffffffffffffff1602179055508173ffffffffffffffffffffffffffffffffffffffff168173ffffffffffffffffffffffffffffffffffffffff167f8be0079c531659141344cd1fd0a4f28419497f9722a3daafe3b4186f6b6457e060405160405180910390a35050565b61264180620001146000396000f3fe608060405234801561001057600080fd5b506004361061010b5760003560e01c8063a2788cce116100a2578063c88af42f11610071578063c88af42f14610248578063d4f50f9814610252578063ee74c67814610282578063f2fde38b1461028c578063f4ab9adf146102a85761010b565b8063a2788cce146101e6578063a7bfab1614610216578063bdc0143114610220578063c7038a4e1461023e5761010b565b8063715018a6116100de578063715018a614610182578063893d20e81461018c5780638da5cb5b146101aa578063a1edffa2146101c85761010b565b8063230796ae146101105780632fdae3c51461012c578063378a2178146101485780634782587214610152575b600080fd5b61012a60048036038101906101259190611613565b6102c4565b005b610146600480360381019061014191906116a5565b6105bf565b005b610150610855565b005b61016c60048036038101906101679190611750565b610aa5565b6040516101799190611798565b60405180910390f35b61018a610afe565b005b610194610b12565b6040516101a191906117c2565b60405180910390f35b6101b2610b21565b6040516101bf91906117c2565b60405180910390f35b6101d0610b4a565b6040516101dd9190611854565b60405180910390f35b61020060048036038101906101fb9190611613565b610b5d565b60405161020d919061194b565b60405180910390f35b61021e610cc4565b005b610228610daa565b604051610235919061197c565b60405180910390f35b610246610db0565b005b610250610f2b565b005b61026c60048036038101906102679190611750565b611010565b60405161027991906119e8565b60405180910390f35b61028a611138565b005b6102a660048036038101906102a19190611750565b61121e565b005b6102c260048036038101906102bd9190611750565b6112a1565b005b600460003373ffffffffffffffffffffffffffffffffffffffff1673ffffffffffffffffffffffffffffffffffffffff16815260200190815260200160002060000160009054906101000a900460ff16610353576040517f08c379a000000000000000000000000000000000000000000000000000000000815260040161034a90611a60565b60405180910390fd5b60036005811115610367576103666117dd565b5b600260009054906101000a900460ff166005811115610389576103886117dd565b5b146103c9576040517f08c379a00000000000000000000000000000000000000000000000000000000081526004016103c090611af2565b60405180910390fd5b60011515600460003373ffffffffffffffffffffffffffffffffffffffff1673ffffffffffffffffffffffffffffffffffffffff16815260200190815260200160002060000160019054906101000a900460ff1615150361045f576040517f08c379a000000000000000000000000000000000000000000000000000000000815260040161045690611b5e565b60405180910390fd5b60038054905081106104a6576040517f08c379a000000000000000000000000000000000000000000000000000000000815260040161049d90611bca565b60405180910390fd5b80600460003373ffffffffffffffffffffffffffffffffffffffff1673ffffffffffffffffffffffffffffffffffffffff168152602001908152602001600020600101819055506001600460003373ffffffffffffffffffffffffffffffffffffffff1673ffffffffffffffffffffffffffffffffffffffff16815260200190815260200160002060000160016101000a81548160ff0219169083151502179055506003818154811061055c5761055b611bea565b5b9060005260206000209060020201600101600081548092919061057e90611c48565b91905055507f4d99b957a2bc29a30ebd96a7be8e68fe50a3c701db28a91436490b7d53870ca433826040516105b4929190611c90565b60405180910390a150565b600460003373ffffffffffffffffffffffffffffffffffffffff1673ffffffffffffffffffffffffffffffffffffffff16815260200190815260200160002060000160009054906101000a900460ff1661064e576040517f08c379a000000000000000000000000000000000000000000000000000000000815260040161064590611a60565b60405180910390fd5b60016005811115610662576106616117dd565b5b600260009054906101000a900460ff166005811115610684576106836117dd565b5b146106c4576040517f08c379a00000000000000000000000000000000000000000000000000000000081526004016106bb90611d05565b60405180910390fd5b6040516020016106d390611d4b565b6040516020818303038152906040528051906020012082826040516020016106fc929190611da7565b6040516020818303038152906040528051906020012003610752576040517f08c379a000000000000000000000000000000000000000000000000000000000815260040161074990611e3d565b60405180910390fd5b6103e86003805490501061076557600080fd5b61076d611594565b82828080601f016020809104026020016040519081016040528093929190818152602001838380828437600081840152601f19601f820116905080830192505050505050508160000181905250600381908060018154018082558091505060019003906000526020600020906002020160009091909190915060008201518160000190816107fb9190612098565b506020820151816001015550507f92e393e9b54e2f801d3ea4beb0c5e71a21cc34a5d34b77d0fb8a3aa1650dc18f600160038054905061083b919061216a565b604051610848919061197c565b60405180910390a1505050565b61085d61144a565b60046005811115610871576108706117dd565b5b600260009054906101000a900460ff166005811115610893576108926117dd565b5b146108d3576040517f08c379a00000000000000000000000000000000000000000000000000000000081526004016108ca90612210565b60405180910390fd5b6000806003805480602002602001604051908101604052809291908181526020016000905b828210156109c6578382906000526020600020906002020160405180604001604052908160008201805461092b90611ebb565b80601f016020809104026020016040519081016040528092919081815260200182805461095790611ebb565b80156109a45780601f10610979576101008083540402835291602001916109a4565b820191906000526020600020905b81548152906001019060200180831161098757829003601f168201915b50505050508152602001600182015481525050815260200190600101906108f8565b50505050905060005b8151811015610a33578183815181106109eb576109ea611bea565b5b602002602001015160200151828281518110610a0a57610a09611bea565b5b6020026020010151602001511115610a20578092505b8080610a2b90611c48565b9150506109cf565b50816001819055506005600260006101000a81548160ff02191690836005811115610a6157610a606117dd565b5b02179055507f0a97a4ee45751e2abf3e4fc8946939630b11b371ea8ae39ccdc3056e98f5cc3f60046005604051610a99929190612230565b60405180910390a15050565b6000600460008373ffffffffffffffffffffffffffffffffffffffff1673ffffffffffffffffffffffffffffffffffffffff16815260200190815260200160002060000160009054906101000a900460ff169050919050565b610b0661144a565b610b1060006114c8565b565b6000610b1c610b21565b905090565b60008060009054906101000a900473ffffffffffffffffffffffffffffffffffffffff16905090565b600260009054906101000a900460ff1681565b610b65611594565b600460003373ffffffffffffffffffffffffffffffffffffffff1673ffffffffffffffffffffffffffffffffffffffff16815260200190815260200160002060000160009054906101000a900460ff16610bf4576040517f08c379a0000000000000000000000000000000000000000000000000000000008152600401610beb90611a60565b60405180910390fd5b60038281548110610c0857610c07611bea565b5b9060005260206000209060020201604051806040016040529081600082018054610c3190611ebb565b80601f0160208091040260200160405190810160405280929190818152602001828054610c5d90611ebb565b8015610caa5780601f10610c7f57610100808354040283529160200191610caa565b820191906000526020600020905b815481529060010190602001808311610c8d57829003601f168201915b505050505081526020016001820154815250509050919050565b610ccc61144a565b60036005811115610ce057610cdf6117dd565b5b600260009054906101000a900460ff166005811115610d0257610d016117dd565b5b14610d42576040517f08c379a0000000000000000000000000000000000000000000000000000000008152600401610d3990611af2565b60405180910390fd5b6004600260006101000a81548160ff02191690836005811115610d6857610d676117dd565b5b02179055507f0a97a4ee45751e2abf3e4fc8946939630b11b371ea8ae39ccdc3056e98f5cc3f60036004604051610da0929190612230565b60405180910390a1565b60015481565b610db861144a565b60006005811115610dcc57610dcb6117dd565b5b600260009054906101000a900460ff166005811115610dee57610ded6117dd565b5b14610e2e576040517f08c379a0000000000000000000000000000000000000000000000000000000008152600401610e25906122cb565b60405180910390fd5b6001600260006101000a81548160ff02191690836005811115610e5457610e536117dd565b5b0217905550610e61611594565b6040518060400160405280600781526020017f47454e4553495300000000000000000000000000000000000000000000000000815250816000018190525060038190806001815401808255809150506001900390600052602060002090600202016000909190919091506000820151816000019081610ee09190612098565b506020820151816001015550507f0a97a4ee45751e2abf3e4fc8946939630b11b371ea8ae39ccdc3056e98f5cc3f60006001604051610f20929190612230565b60405180910390a150565b610f3361144a565b60016005811115610f4757610f466117dd565b5b600260009054906101000a900460ff166005811115610f6957610f686117dd565b5b14610fa9576040517f08c379a0000000000000000000000000000000000000000000000000000000008152600401610fa09061235d565b60405180910390fd5b60028060006101000a81548160ff02191690836005811115610fce57610fcd6117dd565b5b02179055507f0a97a4ee45751e2abf3e4fc8946939630b11b371ea8ae39ccdc3056e98f5cc3f60016002604051611006929190612230565b60405180910390a1565b6110186115ae565b600460003373ffffffffffffffffffffffffffffffffffffffff1673ffffffffffffffffffffffffffffffffffffffff16815260200190815260200160002060000160009054906101000a900460ff166110a7576040517f08c379a000000000000000000000000000000000000000000000000000000000815260040161109e90611a60565b60405180910390fd5b600460008373ffffffffffffffffffffffffffffffffffffffff1673ffffffffffffffffffffffffffffffffffffffff1681526020019081526020016000206040518060600160405290816000820160009054906101000a900460ff161515151581526020016000820160019054906101000a900460ff161515151581526020016001820154815250509050919050565b61114061144a565b60026005811115611154576111536117dd565b5b600260009054906101000a900460ff166005811115611176576111756117dd565b5b146111b6576040517f08c379a00000000000000000000000000000000000000000000000000000000081526004016111ad906123ef565b60405180910390fd5b6003600260006101000a81548160ff021916908360058111156111dc576111db6117dd565b5b02179055507f0a97a4ee45751e2abf3e4fc8946939630b11b371ea8ae39ccdc3056e98f5cc3f60026003604051611214929190612230565b60405180910390a1565b61122661144a565b600073ffffffffffffffffffffffffffffffffffffffff168173ffffffffffffffffffffffffffffffffffffffff1603611295576040517f08c379a000000000000000000000000000000000000000000000000000000000815260040161128c90612481565b60405180910390fd5b61129e816114c8565b50565b6112a961144a565b600060058111156112bd576112bc6117dd565b5b600260009054906101000a900460ff1660058111156112df576112de6117dd565b5b1461131f576040517f08c379a000000000000000000000000000000000000000000000000000000000815260040161131690612513565b60405180910390fd5b60011515600460008373ffffffffffffffffffffffffffffffffffffffff1673ffffffffffffffffffffffffffffffffffffffff16815260200190815260200160002060000160009054906101000a900460ff161515036113b5576040517f08c379a00000000000000000000000000000000000000000000000000000000081526004016113ac9061257f565b60405180910390fd5b6001600460008373ffffffffffffffffffffffffffffffffffffffff1673ffffffffffffffffffffffffffffffffffffffff16815260200190815260200160002060000160006101000a81548160ff0219169083151502179055507fb6be2187d059cc2a55fe29e0e503b566e1e0f8c8780096e185429350acffd3dd8160405161143f91906117c2565b60405180910390a150565b61145261158c565b73ffffffffffffffffffffffffffffffffffffffff16611470610b21565b73ffffffffffffffffffffffffffffffffffffffff16146114c6576040517f08c379a00000000000000000000000000000000000000000000000000000000081526004016114bd906125eb565b60405180910390fd5b565b60008060009054906101000a900473ffffffffffffffffffffffffffffffffffffffff169050816000806101000a81548173ffffffffffffffffffffffffffffffffffffffff021916908373ffffffffffffffffffffffffffffffffffffffff1602179055508173ffffffffffffffffffffffffffffffffffffffff168173ffffffffffffffffffffffffffffffffffffffff167f8be0079c531659141344cd1fd0a4f28419497f9722a3daafe3b4186f6b6457e060405160405180910390a35050565b600033905090565b604051806040016040528060608152602001600081525090565b6040518060600160405280600015158152602001600015158152602001600081525090565b600080fd5b600080fd5b6000819050919050565b6115f0816115dd565b81146115fb57600080fd5b50565b60008135905061160d816115e7565b92915050565b600060208284031215611629576116286115d3565b5b6000611637848285016115fe565b91505092915050565b600080fd5b600080fd5b600080fd5b60008083601f84011261166557611664611640565b5b8235905067ffffffffffffffff81111561168257611681611645565b5b60208301915083600182028301111561169e5761169d61164a565b5b9250929050565b600080602083850312156116bc576116bb6115d3565b5b600083013567ffffffffffffffff8111156116da576116d96115d8565b5b6116e68582860161164f565b92509250509250929050565b600073ffffffffffffffffffffffffffffffffffffffff82169050919050565b600061171d826116f2565b9050919050565b61172d81611712565b811461173857600080fd5b50565b60008135905061174a81611724565b92915050565b600060208284031215611766576117656115d3565b5b60006117748482850161173b565b91505092915050565b60008115159050919050565b6117928161177d565b82525050565b60006020820190506117ad6000830184611789565b92915050565b6117bc81611712565b82525050565b60006020820190506117d760008301846117b3565b92915050565b7f4e487b7100000000000000000000000000000000000000000000000000000000600052602160045260246000fd5b6006811061181d5761181c6117dd565b5b50565b600081905061182e8261180c565b919050565b600061183e82611820565b9050919050565b61184e81611833565b82525050565b60006020820190506118696000830184611845565b92915050565b600081519050919050565b600082825260208201905092915050565b60005b838110156118a957808201518184015260208101905061188e565b60008484015250505050565b6000601f19601f8301169050919050565b60006118d18261186f565b6118db818561187a565b93506118eb81856020860161188b565b6118f4816118b5565b840191505092915050565b611908816115dd565b82525050565b6000604083016000830151848203600086015261192b82826118c6565b915050602083015161194060208601826118ff565b508091505092915050565b60006020820190508181036000830152611965818461190e565b905092915050565b611976816115dd565b82525050565b6000602082019050611991600083018461196d565b92915050565b6119a08161177d565b82525050565b6060820160008201516119bc6000850182611997565b5060208201516119cf6020850182611997565b5060408201516119e260408501826118ff565b50505050565b60006060820190506119fd60008301846119a6565b92915050565b600082825260208201905092915050565b7f596f75277265206e6f74206120766f7465720000000000000000000000000000600082015250565b6000611a4a601283611a03565b9150611a5582611a14565b602082019050919050565b60006020820190508181036000830152611a7981611a3d565b9050919050565b7f566f74696e672073657373696f6e20686176656e74207374617274656420796560008201527f7400000000000000000000000000000000000000000000000000000000000000602082015250565b6000611adc602183611a03565b9150611ae782611a80565b604082019050919050565b60006020820190508181036000830152611b0b81611acf565b9050919050565b7f596f75206861766520616c726561647920766f74656400000000000000000000600082015250565b6000611b48601683611a03565b9150611b5382611b12565b602082019050919050565b60006020820190508181036000830152611b7781611b3b565b9050919050565b7f50726f706f73616c206e6f7420666f756e640000000000000000000000000000600082015250565b6000611bb4601283611a03565b9150611bbf82611b7e565b602082019050919050565b60006020820190508181036000830152611be381611ba7565b9050919050565b7f4e487b7100000000000000000000000000000000000000000000000000000000600052603260045260246000fd5b7f4e487b7100000000000000000000000000000000000000000000000000000000600052601160045260246000fd5b6000611c53826115dd565b91507fffffffffffffffffffffffffffffffffffffffffffffffffffffffffffffffff8203611c8557611c84611c19565b5b600182019050919050565b6000604082019050611ca560008301856117b3565b611cb2602083018461196d565b9392505050565b7f50726f706f73616c7320617265206e6f7420616c6c6f77656420796574000000600082015250565b6000611cef601d83611a03565b9150611cfa82611cb9565b602082019050919050565b60006020820190508181036000830152611d1e81611ce2565b9050919050565b50565b6000611d35600083611a03565b9150611d4082611d25565b600082019050919050565b60006020820190508181036000830152611d6481611d28565b9050919050565b82818337600083830152505050565b6000611d868385611a03565b9350611d93838584611d6b565b611d9c836118b5565b840190509392505050565b60006020820190508181036000830152611dc2818486611d7a565b90509392505050565b7f566f7573206e6520706f7576657a20706173206e65207269656e2070726f706f60008201527f7365720000000000000000000000000000000000000000000000000000000000602082015250565b6000611e27602383611a03565b9150611e3282611dcb565b604082019050919050565b60006020820190508181036000830152611e5681611e1a565b9050919050565b7f4e487b7100000000000000000000000000000000000000000000000000000000600052604160045260246000fd5b7f4e487b7100000000000000000000000000000000000000000000000000000000600052602260045260246000fd5b60006002820490506001821680611ed357607f821691505b602082108103611ee657611ee5611e8c565b5b50919050565b60008190508160005260206000209050919050565b60006020601f8301049050919050565b600082821b905092915050565b600060088302611f4e7fffffffffffffffffffffffffffffffffffffffffffffffffffffffffffffffff82611f11565b611f588683611f11565b95508019841693508086168417925050509392505050565b6000819050919050565b6000611f95611f90611f8b846115dd565b611f70565b6115dd565b9050919050565b6000819050919050565b611faf83611f7a565b611fc3611fbb82611f9c565b848454611f1e565b825550505050565b600090565b611fd8611fcb565b611fe3818484611fa6565b505050565b5b8181101561200757611ffc600082611fd0565b600181019050611fe9565b5050565b601f82111561204c5761201d81611eec565b61202684611f01565b81016020851015612035578190505b61204961204185611f01565b830182611fe8565b50505b505050565b600082821c905092915050565b600061206f60001984600802612051565b1980831691505092915050565b6000612088838361205e565b9150826002028217905092915050565b6120a18261186f565b67ffffffffffffffff8111156120ba576120b9611e5d565b5b6120c48254611ebb565b6120cf82828561200b565b600060209050601f83116001811461210257600084156120f0578287015190505b6120fa858261207c565b865550612162565b601f19841661211086611eec565b60005b8281101561213857848901518255600182019150602085019450602081019050612113565b868310156121555784890151612151601f89168261205e565b8355505b6001600288020188555050505b505050505050565b6000612175826115dd565b9150612180836115dd565b925082820390508181111561219857612197611c19565b5b92915050565b7f43757272656e7420737461747573206973206e6f7420766f74696e672073657360008201527f73696f6e20656e64656400000000000000000000000000000000000000000000602082015250565b60006121fa602a83611a03565b91506122058261219e565b604082019050919050565b60006020820190508181036000830152612229816121ed565b9050919050565b60006040820190506122456000830185611845565b6122526020830184611845565b9392505050565b7f5265676973746572696e672070726f706f73616c732063616e7420626520737460008201527f6172746564206e6f770000000000000000000000000000000000000000000000602082015250565b60006122b5602983611a03565b91506122c082612259565b604082019050919050565b600060208201905081810360008301526122e4816122a8565b9050919050565b7f5265676973746572696e672070726f706f73616c7320686176656e742073746160008201527f7274656420796574000000000000000000000000000000000000000000000000602082015250565b6000612347602883611a03565b9150612352826122eb565b604082019050919050565b600060208201905081810360008301526123768161233a565b9050919050565b7f5265676973746572696e672070726f706f73616c73207068617365206973206e60008201527f6f742066696e6973686564000000000000000000000000000000000000000000602082015250565b60006123d9602b83611a03565b91506123e48261237d565b604082019050919050565b60006020820190508181036000830152612408816123cc565b9050919050565b7f4f776e61626c653a206e6577206f776e657220697320746865207a65726f206160008201527f6464726573730000000000000000000000000000000000000000000000000000602082015250565b600061246b602683611a03565b91506124768261240f565b604082019050919050565b6000602082019050818103600083015261249a8161245e565b9050919050565b7f566f7465727320726567697374726174696f6e206973206e6f74206f70656e2060008201527f7965740000000000000000000000000000000000000000000000000000000000602082015250565b60006124fd602383611a03565b9150612508826124a1565b604082019050919050565b6000602082019050818103600083015261252c816124f0565b9050919050565b7f416c726561647920726567697374657265640000000000000000000000000000600082015250565b6000612569601283611a03565b915061257482612533565b602082019050919050565b600060208201905081810360008301526125988161255c565b9050919050565b7f4f776e61626c653a2063616c6c6572206973206e6f7420746865206f776e6572600082015250565b60006125d5602083611a03565b91506125e08261259f565b602082019050919050565b60006020820190508181036000830152612604816125c8565b905091905056fea26469706673582212203fbfff07265b69df74749b026526836cefbf365cc0f3759c260412ac597e32f164736f6c63430008120033",
  "immutableReferences": {},
  "source": "// SPDX-License-Identifier: MIT\n\npragma solidity 0.8.18;\nimport \"../node_modules/@openzeppelin/contracts/access/Ownable.sol\";\n\n/// @author Lo MARQUAND and Wassim MANSOURI\n/// @title The Alyra projet 3 which is a Voting smart contract (front and back-end)\n\ncontract Voting is Ownable {\n    uint public winningProposalID;\n\n    struct Voter {\n        bool isRegistered;\n        bool hasVoted;\n        uint votedProposalId;\n    }\n\n    struct Proposal {\n        string description;\n        uint voteCount;\n    }\n\n    enum WorkflowStatus {\n        RegisteringVoters,\n        ProposalsRegistrationStarted,\n        ProposalsRegistrationEnded,\n        VotingSessionStarted,\n        VotingSessionEnded,\n        VotesTallied\n    }\n\n    WorkflowStatus public workflowStatus;\n    Proposal[] proposalsArray;\n    mapping(address => Voter) voters;\n\n    event VoterRegistered(address voterAddress);\n    event WorkflowStatusChange(\n        WorkflowStatus previousStatus,\n        WorkflowStatus newStatus\n    );\n    event ProposalRegistered(uint proposalId);\n    event Voted(address voter, uint proposalId);\n\n    modifier onlyVoters() {\n        require(voters[msg.sender].isRegistered, \"You're not a voter\");\n        _;\n    }\n\n    // ::::::::::::: GETTERS ::::::::::::: //\n\n    /// Return info about a Voter\n    /// @param _addr the eth address\n    /// @dev return the Voter struct information\n    function getVoter(\n        address _addr\n    ) external view onlyVoters returns (Voter memory) {\n        return voters[_addr];\n    }\n\n    /// Return true if the address is registered as a Voter\n    /// @param _addr the eth address\n    /// @dev return a boolean, true if _addr is a Voter\n    function getVoterBool(address _addr) external view returns (bool) {\n        return (voters[_addr].isRegistered);\n    }\n\n    /// Return the address of the Owner\n    /// @dev use the owner function of the Ownable contract to return the eth address of the Owner\n    function getOwner() external view returns (address) {\n        return owner();\n    }\n\n    /// Return info about a Proposal\n    /// @param _id the id of a Proposal\n    /// @dev return the Proposal struct of a Proposal id\n    function getOneProposal(\n        uint _id\n    ) external view onlyVoters returns (Proposal memory) {\n        return proposalsArray[_id];\n    }\n\n    // ::::::::::::: REGISTRATION ::::::::::::: //\n\n    // Add a Voter to the Voting process\n    // @param _addr the eth address of a Voter\n    // @dev change the value of the isRegistered parameter to true for this voter\n    function addVoter(address _addr) external onlyOwner {\n        require(\n            workflowStatus == WorkflowStatus.RegisteringVoters,\n            \"Voters registration is not open yet\"\n        );\n        require(voters[_addr].isRegistered != true, \"Already registered\");\n\n        voters[_addr].isRegistered = true;\n        emit VoterRegistered(_addr);\n    }\n\n    // ::::::::::::: PROPOSAL ::::::::::::: //\n\n    /// Add a Proposal that Voters will be able to Vote for\n    /// @param _desc the description of the proposal\n    /// @dev add the string _desc to the description of the Proposal and to the array of Proposals\n    function addProposal(string calldata _desc) external onlyVoters {\n        require(\n            workflowStatus == WorkflowStatus.ProposalsRegistrationStarted,\n            \"Proposals are not allowed yet\"\n        );\n        require(\n            keccak256(abi.encode(_desc)) != keccak256(abi.encode(\"\")),\n            \"Vous ne pouvez pas ne rien proposer\"\n        ); // facultatif\n        require(proposalsArray.length < 1000); // nous limitons le nombre max de proposals pour viter un DOS Gas Limit dans la boucle for de tallyVotes;\n\n        // voir que desc est different des autres\n\n        Proposal memory proposal;\n        proposal.description = _desc;\n        proposalsArray.push(proposal);\n        emit ProposalRegistered(proposalsArray.length - 1);\n    }\n\n    // ::::::::::::: VOTE ::::::::::::: //\n\n    /// Allow a Voter to vote for a Proposal\n    /// @param _id the id of a Proposal\n    /// @dev change the information about the voter in the struct and count the vote\n    function setVote(uint _id) external onlyVoters {\n        require(\n            workflowStatus == WorkflowStatus.VotingSessionStarted,\n            \"Voting session havent started yet\"\n        );\n        require(voters[msg.sender].hasVoted != true, \"You have already voted\");\n        require(_id < proposalsArray.length, \"Proposal not found\"); // pas oblig, et pas besoin du >0 car uint\n\n        voters[msg.sender].votedProposalId = _id;\n        voters[msg.sender].hasVoted = true;\n        proposalsArray[_id].voteCount++;\n\n        emit Voted(msg.sender, _id);\n    }\n\n    // ::::::::::::: STATE ::::::::::::: //\n\n    /// Start the Registration of Proposals\n    /// @dev change the value of the Workflow Status and add the GENESIS Proposal\n    function startProposalsRegistering() external onlyOwner {\n        require(\n            workflowStatus == WorkflowStatus.RegisteringVoters,\n            \"Registering proposals cant be started now\"\n        );\n        workflowStatus = WorkflowStatus.ProposalsRegistrationStarted;\n\n        Proposal memory proposal;\n        proposal.description = \"GENESIS\";\n        proposalsArray.push(proposal);\n\n        emit WorkflowStatusChange(\n            WorkflowStatus.RegisteringVoters,\n            WorkflowStatus.ProposalsRegistrationStarted\n        );\n    }\n\n    /// End the Registration of Proposals\n    /// @dev change the value of the Workflow Status\n    function endProposalsRegistering() external onlyOwner {\n        require(\n            workflowStatus == WorkflowStatus.ProposalsRegistrationStarted,\n            \"Registering proposals havent started yet\"\n        );\n        workflowStatus = WorkflowStatus.ProposalsRegistrationEnded;\n        emit WorkflowStatusChange(\n            WorkflowStatus.ProposalsRegistrationStarted,\n            WorkflowStatus.ProposalsRegistrationEnded\n        );\n    }\n\n    /// Start the Voting Session\n    /// @dev change the value of the Workflow Status\n    function startVotingSession() external onlyOwner {\n        require(\n            workflowStatus == WorkflowStatus.ProposalsRegistrationEnded,\n            \"Registering proposals phase is not finished\"\n        );\n        workflowStatus = WorkflowStatus.VotingSessionStarted;\n        emit WorkflowStatusChange(\n            WorkflowStatus.ProposalsRegistrationEnded,\n            WorkflowStatus.VotingSessionStarted\n        );\n    }\n\n    /// End the Voting Session\n    /// @dev change the value of the Workflow Status\n    function endVotingSession() external onlyOwner {\n        require(\n            workflowStatus == WorkflowStatus.VotingSessionStarted,\n            \"Voting session havent started yet\"\n        );\n        workflowStatus = WorkflowStatus.VotingSessionEnded;\n        emit WorkflowStatusChange(\n            WorkflowStatus.VotingSessionStarted,\n            WorkflowStatus.VotingSessionEnded\n        );\n    }\n\n    /// Count the Votes at the end of the Voting Session\n    /// @dev compare the numbers of votes of each Proposal and calculate the Id of the Winning Proposal\n    function tallyVotes() external onlyOwner {\n        require(\n            workflowStatus == WorkflowStatus.VotingSessionEnded,\n            \"Current status is not voting session ended\"\n        );\n\n        uint _winningProposalId;\n        Proposal[] memory proposalsArray2 = proposalsArray; //reduce gas cost\n\n        for (uint256 p = 0; p < proposalsArray2.length; p++) {\n            if (\n                proposalsArray2[p].voteCount >\n                proposalsArray2[_winningProposalId].voteCount\n            ) {\n                _winningProposalId = p;\n            }\n        }\n        winningProposalID = _winningProposalId;\n\n        workflowStatus = WorkflowStatus.VotesTallied;\n        emit WorkflowStatusChange(\n            WorkflowStatus.VotingSessionEnded,\n            WorkflowStatus.VotesTallied\n        );\n    }\n}\n",
  "sourcePath": "/Users/wassim/Projects/Solidity/Workspace/alyra-graded-projects/Alyra-Project3Voting/truffle/contracts/Voting.sol",
  "compiler": {
    "name": "solc",
    "version": "0.8.18+commit.87f61d96.Emscripten.clang"
  },
  "schemaVersion": "3.4.11",
  "updatedAt": "2023-03-16T16:27:51.143Z",
  "networkType": "ethereum",
  "devdoc": {
    "author": "Lo MARQUAND and Wassim MANSOURI",
    "kind": "dev",
    "methods": {
      "addProposal(string)": {
        "details": "add the string _desc to the description of the Proposal and to the array of Proposals",
        "params": {
          "_desc": "the description of the proposal"
        }
      },
      "endProposalsRegistering()": {
        "details": "change the value of the Workflow Status"
      },
      "endVotingSession()": {
        "details": "change the value of the Workflow Status"
      },
      "getOneProposal(uint256)": {
        "details": "return the Proposal struct of a Proposal id",
        "params": {
          "_id": "the id of a Proposal"
        }
      },
      "getOwner()": {
        "details": "use the owner function of the Ownable contract to return the eth address of the Owner"
      },
      "getVoter(address)": {
        "details": "return the Voter struct information",
        "params": {
          "_addr": "the eth address"
        }
      },
      "getVoterBool(address)": {
        "details": "return a boolean, true if _addr is a Voter",
        "params": {
          "_addr": "the eth address"
        }
      },
      "owner()": {
        "details": "Returns the address of the current owner."
      },
      "renounceOwnership()": {
        "details": "Leaves the contract without owner. It will not be possible to call `onlyOwner` functions anymore. Can only be called by the current owner. NOTE: Renouncing ownership will leave the contract without an owner, thereby removing any functionality that is only available to the owner."
      },
      "setVote(uint256)": {
        "details": "change the information about the voter in the struct and count the vote",
        "params": {
          "_id": "the id of a Proposal"
        }
      },
      "startProposalsRegistering()": {
        "details": "change the value of the Workflow Status and add the GENESIS Proposal"
      },
      "startVotingSession()": {
        "details": "change the value of the Workflow Status"
      },
      "tallyVotes()": {
        "details": "compare the numbers of votes of each Proposal and calculate the Id of the Winning Proposal"
      },
      "transferOwnership(address)": {
        "details": "Transfers ownership of the contract to a new account (`newOwner`). Can only be called by the current owner."
      }
    },
    "title": "The Alyra projet 3 which is a Voting smart contract (front and back-end)",
    "version": 1
  },
  "userdoc": {
    "kind": "user",
    "methods": {
      "addProposal(string)": {
        "notice": "Add a Proposal that Voters will be able to Vote for"
      },
      "endProposalsRegistering()": {
        "notice": "End the Registration of Proposals"
      },
      "endVotingSession()": {
        "notice": "End the Voting Session"
      },
      "getOneProposal(uint256)": {
        "notice": "Return info about a Proposal"
      },
      "getOwner()": {
        "notice": "Return the address of the Owner"
      },
      "getVoter(address)": {
        "notice": "Return info about a Voter"
      },
      "getVoterBool(address)": {
        "notice": "Return true if the address is registered as a Voter"
      },
      "setVote(uint256)": {
        "notice": "Allow a Voter to vote for a Proposal"
      },
      "startProposalsRegistering()": {
        "notice": "Start the Registration of Proposals"
      },
      "startVotingSession()": {
        "notice": "Start the Voting Session"
      },
      "tallyVotes()": {
        "notice": "Count the Votes at the end of the Voting Session"
      }
    },
    "version": 1
  }
}